:020000040000FA
:100000000C94AD000C94CC130C94A5130C94D50057
:100010000C94D5000C94D5000C94D5000C94D5000C
:100020000C94D5000C94D5000C94D5000C94D500FC
:100030000C94D5000C94D5000C94F3130C94D500BB
:100040000C945B130C94D5000C9429130C9403139B
:100050000C94D5000C94D5000C94D5000C94D500CC
:100060000C94D5000C94D50000000000240027005B
:100070002A0000000000250028002B0000000000DE
:1000800023002600290004040404040404040202DA
:100090000202020203030303030301020408102007
:1000A0004080010204081020010204081020000012
:1000B0000008000201000003040700000000000027
:1000C0000000506C6179696E6720747261636B2007
:1000D00030303200506C6179696E672074726163F0
:1000E0006B20303031005344206661696C65642CAC
:1000F000206F72206E6F742070726573656E74006D
:1001000056533130353320666F756E6400436F751A
:100110006C646E27742066696E64205653313035E6
:10012000332C20646F20796F7520686176652074A8
:1001300068652072696768742070696E73206465F1
:1001400066696E65643F007C3C3E5E2B3D3F2F5BE5
:100150005D3B2C2A225C00006F1611241FBECFEFDE
:10016000D8E0DEBFCDBF11E0A0E0B1E0E8E1F7E309
:1001700002C005900D92A43AB107D9F724E0A4EA91
:10018000B1E001C01D92AD3EB207E1F710E0CDEA4B
:10019000D0E004C02197FE010E94081ACC3AD10792
:1001A000C9F70E94DA160C948A1B0C940000AF92D7
:1001B000BF92CF92DF92EF92FF920F931F93CF9354
:1001C000DF936C017B018B01040F151FEB015E01B6
:1001D000AE18BF08C017D10759F06991D601ED914B
:1001E000FC910190F081E02DC6010995892B79F7EA
:1001F000C501DF91CF911F910F91FF90EF90DF909C
:10020000CF90BF90AF900895FC01538D448D252F62
:1002100030E0842F90E0821B930B541710F0CF96A0
:10022000089501970895FC01918D828D981761F0D2
:10023000A28DAE0FBF2FB11D5D968C91928D9F5FE9
:100240009F73928F90E008958FEF9FEF0895FC01C8
:10025000918D828D981731F0828DE80FF11D858D7B
:1002600090E008958FEF9FEF0895FC01918D228D0E
:10027000892F90E0805C9F4F821B91098F73992793
:1002800008958CEB93E00E94350121E0892B09F45D
:1002900020E0822F089580E090E0892B29F00E94D1
:1002A000410181110C9400000895FC01A48DA80F58
:1002B000B92FB11DA35ABF4F2C91848D90E00196A8
:1002C0008F739927848FA689B7892C93A089B189C8
:1002D0008C91837080648C93938D848D981306C069
:1002E0000288F389E02D80818F7D80830895EF92CD
:1002F000FF920F931F93CF93DF93EC0181E0888FE0
:100300009B8D8C8D98131AC0E889F989808185FFAF
:1003100015C09FB7F894EE89FF896083E889F98951
:1003200080818370806480839FBF81E090E0DF9153
:10033000CF911F910F91FF90EF900895F62E0B8DA6
:1003400010E00F5F1F4F0F731127E02E8C8D8E1161
:100350000CC00FB607FCFACFE889F989808185FFC8
:10036000F5CFCE010E945501F1CFEB8DEC0FFD2FA3
:10037000F11DE35AFF4FF0829FB7F8940B8FEA8983
:10038000FB8980818062CFCFCF93DF93EC01888D92
:100390008823B9F0AA89BB89E889F9898C9185FD00
:1003A00003C0808186FD0DC00FB607FCF7CF8C918E
:1003B00085FFF2CF808185FFEDCFCE010E945501F0
:1003C000E9CFDF91CF910895833081F028F4813017
:1003D00099F08230A9F008958730A9F08830C9F0EB
:1003E0008430B1F4809180008F7D03C080918000C3
:1003F0008F7780938000089584B58F7784BD0895AA
:1004000084B58F7DFBCF8091B0008F778093B00053
:1004100008958091B0008F7DF9CFCF93DF93282F7F
:1004200030E0F901E255FF4F8491F901E656FF4FA4
:10043000D491F901EA57FF4FC491CC23A1F0811167
:100440000E94E401EC2FF0E0EE0FFF1FE458FF4F95
:10045000A591B491EC91ED2381E090E009F480E066
:10046000DF91CF91089580E090E0FACF1F93CF9372
:10047000DF93282F30E0F901E255FF4F8491F90115
:10048000E656FF4FD491F901EA57FF4FC491CC23B0
:10049000A9F0162F81110E94E401EC2FF0E0EE0F7D
:1004A000FF1FEE58FF4FA591B4918FB7F894EC91D0
:1004B000111108C0D095DE23DC938FBFDF91CF915F
:1004C0001F910895DE2BF8CFCF93DF9390E0FC01CE
:1004D000E656FF4F24918A579F4FFC018491882351
:1004E000D1F090E0880F991FFC01E859FF4FA591CA
:1004F000B491FC01EE58FF4FC591D49161110EC02B
:100500009FB7F8948C91E22FE0958E238C932881ED
:10051000E223E8839FBFDF91CF9108958FB7F894CE
:10052000EC91E22BEC938FBFF6CF3FB7F89480911C
:10053000B1019091B201A091B301B091B40126B57F
:10054000A89B05C02F3F19F00196A11DB11D3FBF0B
:10055000BA2FA92F982F8827BC01CD01620F711DDA
:10056000811D911D42E0660F771F881F991F4A95D4
:10057000D1F708958F929F92AF92BF92CF92DF9260
:10058000EF92FF924B015C010E9495026B017C018E
:100590000E9495026C197D098E099F09683E73407F
:1005A00081059105A8F321E0821A9108A108B108FC
:1005B00088EEC80E83E0D81EE11CF11C8114910462
:1005C000A104B10429F7FF90EF90DF90CF90BF9086
:1005D000AF909F908F9008952FB7F8946091AD01E0
:1005E0007091AE018091AF019091B0012FBF08953D
:1005F0000895FC01DB0112968D919C9113979383D2
:10060000828384E291E09183808314968C91149785
:10061000848315968C911597858316964D915D91DF
:100620006D917C91199746835783608771871A96DD
:100630004D915D916D917C911D97428753876487A1
:1006400075871E964D915D916D917C91519746876E
:100650005787608B718B52968C915297828B5396F1
:100660004D915D916D917C915697438B548B658B29
:10067000768B57964D915D916D917C915A97478BF2
:10068000508F618F728F5B968D919C91948F838F29
:100690000895DC015996ED91FC91309721F081E0AD
:1006A0009581911101C080E00895DC015996ED918A
:1006B000FC913097B9F083899489A589B6894285E0
:1006C000538564857585841B950BA60BB70B811527
:1006D00020E89207A105B10538F08FEF9FE7A0E071
:1006E000B0E0089590E080E00895DC0159968D9186
:1006F0009C91009739F0DC01ED91FC910480F5812B
:10070000E02D099490E080E00895CF93DF931F924D
:10071000CDB7DEB76983DC01ED91FC910280F381F6
:10072000E02D41E050E0BE016F5F7F4F09950F90D3
:10073000DF91CF9108958091B601882361F09FB732
:10074000F8942091B6018091A501213019F48DBB58
:100750009FBF08958FBF089561E0FC0184810E94CE
:1007600036028091A701882321F01092A7010C94F2
:100770009B0308958EBD00000DB407FEFDCF8EB51E
:1007800008958091CB04882319F080E00C94BA037B
:1007900088E090910000909100009093000090916B
:1007A0000000909300008150A1F780910000809399
:1007B000000080E008958FEF0C94BA030F931F930D
:1007C000CF93DF93EC010E94EC028B010E94DB03CC
:1007D0008F3F69F00E94EC02601B710B6C177D0764
:1007E000A8F380E0DF91CF911F910F91089581E0F0
:1007F000F9CF0F931F93CF93DF93EB01FC0187A1F8
:100800008B01040F151F81111AC0C017D107F1F019
:1008100027E030E08091000080930000809100008C
:1008200080930000809100008093000021503109E6
:1008300088F780910000809300002196E6CFC017D2
:10084000D10721F089910E94BA03F9CFDF91CF91AE
:100850001F910F910895CF93DF93CDB7DEB7A09787
:100860000FB6F894DEBF0FBECDBFFE01B096E07E9E
:10087000608341E050E0BF010E94F903A0960FB6EB
:10088000F894DEBF0FBECDBFDF91CF9108952091C8
:10089000B601222381F03FB7F8942091B6012130B0
:1008A00069F42DB32093A5014DB32091B501209596
:1008B00024232DBB3FBF8CBD9DBD08953093A50162
:1008C000FACFCF93DF93EC018091A701811109C08A
:1008D00081E08093A7018091590490915A040E946D
:1008E000470460E08C81DF91CF910C9436028F92A7
:1008F0009F92AF92BF92FF920F931F93CF93DF937C
:10090000EC01F62E49015A018E81882389F08F81EE
:1009100098859C012F5F3F4F38872F83823092400C
:1009200018F40E94DB03F3CFCE010E94AC031E82B9
:10093000CE010E9461048CE291E00E94DE038F2DC3
:1009400080640E94BA0308E110E0D501C401002EC2
:1009500004C0B695A795979587950A94D2F70E94FB
:10096000BA0308501109083F8FEF180771F785E99E
:10097000FF2021F028E087E8F2128FEF0E94BA03EF
:1009800010E00E94DB038A8787FF04C01F3F11F03D
:100990001F5FF7CFDF91CF911F910F91FF90BF9015
:1009A000AF909F908F900895AF92BF92CF92DF92B9
:1009B000EF92FF920F931F93CF93DF93EC016901A6
:1009C000C801820F931F8130924050F58E81882399
:1009D00079F088819981AA81BB8184179507A60740
:1009E000B70731F48F819885C816D90608F042C040
:1009F000488359836A837B838B85833039F089E010
:100A0000440F551F661F771F8A95D1F79A01AB01D6
:100A100061E1CE010E947704882389F083E08D8311
:100A2000CE010E94AC0380E0DF91CF911F910F9126
:100A3000FF90EF90DF90CF90BF90AF9008950E940D
:100A4000EC025B010E94DB038A878F3F69F40E94FE
:100A5000EC026A197B096D327140A0F38FE08D833F
:100A6000CE010E94AC03DCCF8E3F89F418861F8232
:100A700081E08E838F8198858C159D0550F40E94AE
:100A8000DB038F819885019698878F83F3CF8DE064
:100A9000E6CF6701E00EF11E0E94DB03F6018193B1
:100AA0006F01EE15FF05C1F78F819885080F191F9B
:100AB00018870F838985882319F001151240A0F04B
:100AC0008E81882389F08F8198859C012F5F3F4F0D
:100AD00038872F838230924018F40E94DB03F3CFD3
:100AE000CE010E94AC031E8281E09ECFCF92DF92A6
:100AF000EF92FF920F93CF93DF93EC01690182E1B4
:100B0000411551056105710599F08B85833039F0E8
:100B100089E0440F551F661F771F8A95D1F79A0108
:100B2000AB0168E1CE010E947704882319F084E0CC
:100B30008D832DC08EEF0E94BA0376018EEFD81AF6
:100B4000F70181917F010E94BA03EC14FD04C1F703
:100B50008FEF0E94BA038FEF0E94BA030E94DB035B
:100B60008A878F71853071F4011116C0CE010E9401
:100B7000AC0381E0DF91CF910F91FF90EF90DF9078
:100B8000CF90089581E18D83CE010E94AC03CE0108
:100B90000E94AC0380E0EECF88E592E00E94DE0385
:100BA000811102C085E1C4CF20E030E0A9016DE0F1
:100BB000CE010E947704882311F084E1B9CF0E940E
:100BC000DB038111FACFD2CF0F934091A80150914E
:100BD000A9016091AA017091AB0141155105610510
:100BE000710599F0082F2CEB31E08091B9019091BB
:100BF000BA010E947605882349F01092A80110924C
:100C0000A9011092AA011092AB0181E00F91089501
:100C10000F93CF93C82F8091BB01811105C0C1E014
:100C20008C2FCF910F9108954091040150910501AF
:100C300060910601709107010C2F2CEB31E080913F
:100C4000B9019091BA010E947605811102C0C0E0FD
:100C5000E7CFCC2321F381E00E94E4058823B9F398
:100C60001092BB01DDCF8F929F92AF92BF92EF9215
:100C7000FF920F931F93CF934B015C01C42F809180
:100C8000040190910501A0910601B091070188151A
:100C90009905AA05BB0551F181E00E940806811162
:100CA0000BC080E0CF911F910F91FF90EF90BF900C
:100CB000AF909F908F9008958CEBE82E81E0F82EF6
:100CC00000E012E030E020E0B501A4018091B9011C
:100CD0009091BA010E94D404882319F380920401F0
:100CE00090920501A0920601B09207014091BB01CC
:100CF0004C2B4093BB0181E0D5CF8F929F92AF9256
:100D0000BF92CF92DF92EF92FF92CF932BE534E028
:100D10003093BA012093B901882309F46DC040E0F3
:100D200060E070E0CB010E94330681110BC080E0CF
:100D3000CF91FF90EF90DF90CF90BF90AF909F90BA
:100D40008F90089580917A038F7789F78091860339
:100D500090918703A0918803B0918903843691050F
:100D6000A105B10520F3C0908203D0908303E090E9
:100D70008403F0908503C114D104E104F104B9F2B5
:100D800040E0C701B6010E943306882381F28091BA
:100D9000C7019091C8018115924049F6A091CC01FC
:100DA000AA2329F26091CA017091CB0161157105E6
:100DB00009F4BDCF2091C901222309F4B8CFA09333
:100DC000790420936B0490E080E030E0E1E0F0E013
:100DD000C82FAF01082E02C0440F551F0A94E2F736
:100DE0002417350769F041E0480F019689309105D5
:100DF00079F7409374049BCFC12CD12C7601C0CFDE
:100E0000809374042091D2013091D30150E040E0EE
:100E10002115310541F42091E0013091E10140912B
:100E2000E2015091E30120936C0430936D044093F0
:100E30006E0450936F0446015701860E971EA11C45
:100E4000B11C80927A0490927B04A0927C04B092B0
:100E50007D04E091CD01F091CE01F0938004E09308
:100E60007F04B0E00E94FD19DC01CB01880D991DC3
:100E7000AA1DBB1D8093810490938204A0938304D8
:100E8000B093840425E0EE0FFF1F2A95E1F7E150AF
:100E9000FE4FEF2FFF27E6958E0F9F1FA11DB11D5F
:100EA0008093750490937604A0937704B0937804AC
:100EB0008090CF019090D001B12CA12C811491048D
:100EC00041F48090DC019090DD01A090DE01B090B3
:100ED000DF01C81AD90AEA0AFB0AC80CD91CEA1CA5
:100EE000FB1C04C0F694E794D794C794CA95D2F734
:100EF000C0927004D0927104E0927204F092730474
:100F000085EFC8168FE0D806E104F10428F48CE0E0
:100F100080937E0481E00CCF80E125EFC2162FEF95
:100F2000D206E104F104A0F38091E8019091E90177
:100F3000A091EA01B091EB01809381049093820427
:100F4000A0938304B093840480E2E2CF4F925F9237
:100F50006F927F928F929F92AF92BF92CF92DF92C9
:100F6000EF92FF920F931F93CF93DF93EC014230E8
:100F700051056105710590F480E0DF91CF911F91DB
:100F80000F91FF90EF90DF90CF90BF90AF909F9028
:100F90008F907F906F905F904F90089589859A858C
:100FA000AB85BC850196A11DB11D84179507A607C9
:100FB000B70710F3CB88DC88ED88FE888F898031F5
:100FC00009F042C0BB27A72F962F852F4801590152
:100FD0002A013B01C80ED91EEA1EFB1E80910401A6
:100FE00090910501A0910601B0910701C816D9069C
:100FF000EA06FB0699F58F898031C1F5B301A2019C
:10100000552766277727440F551F44545E4FFA0132
:10101000918280828091BB0181608093BB018A892B
:10102000823080F08D819E81AF81B8858C0D9D1DB1
:10103000AE1DBF1D8093A8019093A901A093AA01A2
:10104000B093AB0181E099CFDB01CA01E7E0B6952F
:10105000A79597958795EA95D1F7B8CF40E0C70156
:10106000B6010E9433068111C6CF86CFB301A2011B
:101070004F77552766277727440F551F440F551F75
:1010800044545E4FFA0180829182A282B382C2CF21
:101090008F929F92AF92BF92CF92DF92EF92FF9288
:1010A0000F931F93CF93DF93FC0181859285A385D6
:1010B000B4850196A11DB11D84179507A607B70732
:1010C00070F480E0DF91CF911F910F91FF90EF902E
:1010D000DF90CF90BF90AF909F908F9008958388BE
:1010E0009488A588B6888789803189F5BB27A72F82
:1010F000962F852FE9016A017B018F01BC01CD018B
:10110000680D791D8A1D9B1D80900401909005013A
:10111000A0900601B090070186169706A806B906AA
:1011200001F5F8018789803111F5DD24EE24FF24D3
:10113000F601EE0FFF1FE454FE4F80819181B0E075
:10114000A0E088839983AA83BB8381E0BBCFDB01C6
:10115000CA01C7E0B695A79597958795CA95D1F727
:10116000C9CF40E00E9433068111DBCFAACFE894BB
:10117000C7F8DD24EE24FF24F601EE0FFF1FEE0F6B
:10118000FF1FE454FE4F80819181A281B381BF7023
:10119000D8CF4F925F926F927F92AF92BF92CF92D1
:1011A000DF92EF92FF920F931F93CF93DF9300D0C4
:1011B00000D0CDB7DEB78C0149835A836B837C8323
:1011C0005901C12CD12C7601412C82E0582E612C82
:1011D000712C49815A816B817C819E012F5F3F4F29
:1011E000C8010E944808882339F1F8018585A301C8
:1011F000920104C0220F331F441F551F8A95D2F756
:10120000DA01C901C80ED91EEA1EFB1E49815A81A6
:101210006B817C818789803111F188EF9FEFAFEF7F
:10122000BFE0481759076A077B0798F2F501C082AB
:10123000D182E282F38281E00F900F900F900F90A5
:10124000DF91CF911F910F91FF90EF90DF90CF90A2
:10125000BF90AF907F906F905F904F90089588EF10
:101260009FEFA0E0B0E0DDCFCF93DF93FC012581BD
:10127000222321F080E0DF91CF910895EC0180914D
:101280007E04803159F582E08583178A108E118E95
:10129000128E80917F0490918004B0E0A0E025E060
:1012A000880F991FAA1FBB1F2A95D1F7838B948B98
:1012B000A58BB68B87E694E09C8F8B8F81E08C8327
:1012C0001E821F82188619861A861B861C861D861A
:1012D0001E861F86188A198A1A8ACDCF803251F647
:1012E00083E085834091810450918204609183045E
:1012F00070918404478B508F618F728F9F012D5E98
:101300003F4F87E694E00E94C9088111D3CFB2CF46
:101310008F929F92AF92BF92CF92DF92EF92FF9205
:101320000F931F93CF93DF93EC018D8181110EC03A
:1013300080E0DF91CF911F910F91FF90EF90DF90B0
:10134000CF90BF90AF909F908F9008950B891C898C
:101350002D893E89041715072607370748F34A01E8
:101360005B01823031F48A869B86AC86BD8681E043
:10137000E0CF81149104A104B10449F41E821F82BC
:10138000188619861A861B861C861D86F0CF0A854C
:101390001B852C853D85EB8DFC8D858590E0099620
:1013A000B901A8014150510961097109082E04C011
:1013B00076956795579547950A94D2F7750164011C
:1013C000E1E0CE1AD108E108F10804C0F694E794F0
:1013D000D794C7948A95D2F7C416D506E606F706C1
:1013E00020F0012B022B032B11F58F89988DA98DED
:1013F000BA8D8E839F83A887B9878E010A5F1F4F9E
:10140000C114D104E104F10409F4ADCF4E815F8130
:101410006885798598018B8D9C8D0E94480891E0A4
:10142000C91AD108E108F1088111EACF81CFC41AA5
:10143000D50AE60AF70AE1CF3F924F925F926F9288
:101440007F928F929F92AF92BF92CF92DF92EF9254
:10145000FF920F931F93CF93DF93CDB7DEB72C97F7
:101460000FB6F894DEBF0FBECDBF5C01DC015B960A
:101470008D909C905C9716964D905D906D907C90B1
:101480001997411451046104710409F468C0BFEF55
:101490004B1A5B0A6B0A7B0A312CF4018185928519
:1014A000A385B4859C01AD012F5F3F4F4F4F5F4F28
:1014B00029873A874B875C87730162011D821E82F0
:1014C0001F821886F40181859285A385B4852D81BC
:1014D0003E814F815885281739074A075B0708F076
:1014E00056C089859A85AB85BC858C159D05AE0552
:1014F000BF0550F482E0C82ED12CE12CF12C92E0F3
:10150000492E512C612C712C9E012F5F3F4FB7014A
:10151000A601C4010E9448088823C9F189819A81E3
:10152000AB81BC81892B8A2B8B2B09F126013701DA
:101530009FEF491A590A690A790A2D813E814F8124
:1015400058852F5F3F4F4F4F5F4F2D833E834F8313
:1015500058873FEFC31AD30AE30AF30AB3CFF40163
:1015600040805180628073803324339496CFC414BA
:10157000D504E604F70409F70FEF1FEF2FEF3FE064
:10158000B701A601C4010E94A607811119C080E01D
:101590002C960FB6F894DEBF0FBECDBFDF91CF9172
:1015A0001F910F91FF90EF90DF90CF90BF90AF9081
:1015B0009F908F907F906F905F904F903F90089595
:1015C000D50116964D915D916D917C9119974115BC
:1015D00051056105710539F097018601C4010E942A
:1015E000A6078823A1F2D5011696CD92DD92ED9241
:1015F000FC921997332051F0D701C6010196A11D25
:10160000B11DF40180839183A283B383F50187899F
:10161000908DA18DB28D892B8A2B8B2B39F48481EF
:10162000C78AD08EE18EF28E80688483F501848132
:101630008062848381E0ACCF2F923F924F925F9281
:101640006F927F928F929F92AF92BF92CF92DF92D2
:10165000EF92FF920F931F93CF93DF93EC015B0107
:101660002A018D81811115C08FEF9FEFDF91CF91FE
:101670001F910F91FF90EF90DF90CF90BF90AF90B0
:101680009F908F907F906F905F904F903F902F90A2
:1016900008958C8180FFE8CF0B891C892D893E89B4
:1016A0004A855B856C857D85C201B0E0A0E068015C
:1016B0007901C41AD50AE60AF70AC816D906EA0655
:1016C000FB0618F42801441A550A42011E0126E0BF
:1016D000220E311C8114910409F4B3C04A855B8544
:1016E0006C857D856A0181E0D8228B8D9C8D8A0175
:1016F0009B01E9E03695279517950795EA95D1F76F
:10170000ED81E230E1F5FC01628D738D848D958D64
:10171000600F711F821F931F612C22E0722E6C18C4
:101720007D088614970408F434012C8126FD04C03A
:101730006114F2E07F0671F400910401109105013B
:10174000209106013091070106171707280739076E
:1017500009F053C040E00E943306882309F484CF87
:10176000C60184549E4FD5019C01260D371DFC01F6
:101770002E173F0709F460C041914D93F9CFFC014A
:1017800074807A947022C114D10471F471100CC069
:10179000452B462B472B39F58F89988DA98DBA8D0E
:1017A0008E839F83A887B987EB8DFC8D6E817F81A7
:1017B000888599856250710981099109258504C040
:1017C000660F771F881F991F2A95D2F70685178500
:1017D00020893189600F711F821F931F670D711D52
:1017E000811D911D99CF4E815F8168857985910119
:1017F0000E9448088111D8CF37CF75018301960127
:10180000AB01BC018091B9019091BA010E94D4044E
:10181000882309F429CFA60CB71C8A859B85AC8543
:10182000BD85860D971DA11DB11D8A879B87AC873D
:10183000BD87861897084ECF281B390BA20EB31E02
:10184000ECCFC20113CFCF93DF931F92CDB7DEB79A
:1018500041E050E0BE016F5F7F4F0E941C0B01977B
:1018600031F4898190E00F90DF91CF9108958FEF4F
:101870009FEFF9CFFC01818D928D009711F00C94B0
:10188000230C8FEF9FEF08950F931F93CF93DF9358
:10189000EC01898D9A8D10E000E0009799F00E948C
:1018A000230C8C010F3F100769F0898D9A8DFC0184
:1018B00042855385648575854150510961097109D7
:1018C0000E948809C801DF91CF911F910F9108955F
:1018D0001F93CF93DF93FC0125812223D1F1162F93
:1018E000EC01848187FF2AC066857785808991898C
:1018F00041E00E943306882361F1EA8980E2E89F93
:10190000F0011124E454FE4F309719F18D8182309B
:1019100040F48B899C89AD89BE89848F958FA68F71
:10192000B78F8F89988D938F828F8F89988DA98D8E
:10193000BA8DB58BA48B8C818F778C83111103C0EA
:101940008C818F7E8C83812FDF91CF911F910C949E
:10195000080680E0DF91CF911F910895FF920F93C9
:101960001F93CF93DF93EC018D81813041F090E0A4
:1019700080E0DF91CF911F910F91FF9008958C81AE
:1019800081FFF5CF82FD1BC00091B9011091BA0112
:10199000C8010E9461040E94DB03F82EC8010E9466
:1019A000AC038FEFF812E3CF8C8185FF1BC060E0A2
:1019B000CE010E94680C8C818F7D8C83D8CF4B899F
:1019C0005C896D897E898A859B85AC85BD858417F8
:1019D0009507A607B707C1F2CE010E9488098111B9
:1019E000D3CFC5CF4091A8015091A9016091AA0120
:1019F0007091AB01452B462B472B21F080E00E94D4
:101A0000E405B5CF80618C832A853B85317080E009
:101A100092E0821B930BADCFCF93DF93EC0161E09B
:101A20000E94680C882311F01D8281E0DF91CF9124
:101A30000895FC01818D928D009719F061E00C945E
:101A4000680C08952F923F924F925F926F927F920F
:101A50008F929F92AF92BF92CF92DF92EF92FF92BE
:101A60000F931F93CF93DF9300D000D01F92CDB779
:101A7000DEB77C015B01342E5D83DC0115968C9111
:101A80001597813009F0CEC014962C9021FECAC063
:101A900022FCB4C0C32CDD8022947FE02722209456
:101AA000B22DB1702B2ED7011A964D915D916D918B
:101AB0007C911D97C114D10409F428C15B968D91C6
:101AC0009C915C97FC0174807A948A019B0169E087
:101AD00036952795179507956A95D1F770228A0153
:101AE0001170711020C001151105E9F416964D9181
:101AF0005D916D917C9119974115510561057105B5
:101B000009F099C057968D919D910D90BC91A02D93
:101B10000097A105B10509F0B0C0C7010E941C0AD9
:101B2000882309F47FC080E092E0801B910B46017E
:101B30008C159D0508F44C01D7015B964D915C9185
:101B40005C9716968D919D910D90BC91A02D02975A
:101B5000A109B109FA01258504C0880F991FAA1FA0
:101B6000BB1F2A95D2F74685578560897189840FF6
:101B7000951FA61FB71F9C01AD01270D311D411DEB
:101B8000511D29013A01811432E0930609F07BC00E
:101B90008091040190910501A0910601B091070187
:101BA00084159505A605B70559F48FEF9FEFDC0165
:101BB0008093040190930501A0930601B09307015F
:101BC000022D9501B301A2018091B9019091BA0152
:101BD0000E947605882331F19EEFB91AC818D908FA
:101BE000F70182859385A485B585880D991DA11D72
:101BF000B11D82879387A487B58755CFF7014389A5
:101C000054896589768982859385A485B585481729
:101C100059076A077B0709F43DCFC7010E9488096D
:101C2000811138CF81E090E0D70113969C938E9379
:101C3000129780E007C09E012F5F3F4F0E94480827
:101C4000811102C090E079C089819A81AB81BC8109
:101C5000F701238D348DF901278948EF5FEF60E0AC
:101C600070E0203121F048EF5FEF6FEF7FE08417E5
:101C70009507A607B70708F050CFF701868397832B
:101C8000A087B18750CF0115110599F5D7011A9694
:101C90004D915D916D917C911D9753968D919D9184
:101CA0000D90BC91A02D481759076A077B0708F1D2
:101CB00081E00E940806882309F4B4CF4092040111
:101CC0005092050160920601709207018091BB015C
:101CD00081608093BB01C80184549E4FD5019C0153
:101CE000280D391DFC012E173F0759F04D914193E6
:101CF000FACF41E0C301B2010E9433068111EBCF5C
:101D000091CF281B390BA20EB31E68CFF701838930
:101D10009489A589B68984179507A607B70738F46B
:101D20008481438B548B658B768B80688483F70129
:101D3000848183FD1AC0832D9D810F900F900F9099
:101D40000F900F90DF91CF911F910F91FF90EF9027
:101D5000DF90CF90BF90AF909F908F907F906F90CB
:101D60005F904F903F902F90089561E0C7010E94CF
:101D7000680C882309F456CFDECFCF93DF931F92F0
:101D8000CDB7DEB7698341E050E0BE016F5F7F4FA2
:101D90000E94220D0F90DF91CF910895CF93DF9392
:101DA000EC01E98DFA8D309749F481E090E09B8356
:101DB0008A8390E080E0DF91CF91089513821282B0
:101DC000898D9A8D0E94220DE98DFA8D22813381B1
:101DD000232B59F7F0CFFF920F931F93CF93DF93ED
:101DE000EC01F62E142F052F8FA1882321F082E518
:101DF00090E00E94470460E08DA10E94360262E0FC
:101E0000CE010E942B046F2DCE010E942B04602F67
:101E1000CE010E942B04612FCE010E942B0461E0B1
:101E20008DA10E9436028FA1882339F0DF91CF91D6
:101E30001F910F91FF900C949B03DF91CF911F9105
:101E40000F91FF900895CF93CFB7F8948091A4019C
:101E5000811127C0E0E9F0E08491E4EAF0E0949198
:101E6000E82FF0E0EE0FFF1FE859FF4FA591B49166
:101E7000EC91E92321F461E08AE00E94360261E0FE
:101E80008AE00E9464028CB580618CBD8CB5806450
:101E90008CBD61E08DE00E94640261E08BE00E94F5
:101EA00064028091A4018F5F8093A401CFBFCF9182
:101EB0000895089590E080E00895FC0101900020CD
:101EC000E9F73197AF01481B590BBC018CEB93E04C
:101ED0000C94D700CF93DF930E945D0FEC018EE34B
:101EE00091E00E945D0F8C0F9D1FDF91CF910895AF
:101EF0000F931F93CF93DF938C01D0E0C0E0F801E4
:101F0000EC0FFD1F6491662341F08CEB93E00E947F
:101F10007701892B11F02196F2CF8EE391E00E9498
:101F20005D0F8C0F9D1FDF91CF911F910F91089531
:101F30000F931F93CF93DF93EC0180E2689FF00132
:101F40001124E454FE4F6A8B8091040190910501A5
:101F5000A0910601B09107018E879F87A88BB98B4E
:101F60000489158930E020E09801112700270F8BA4
:101F7000188F298F3A8F828D938DB0E0A0E0AC014D
:101F8000BD01402B512B622B732B4F8B588F698FC8
:101F90007A8F83858871A9F4848D958DA68DB78DF0
:101FA0008B8B9C8BAD8BBE8B81E08D8381E08C8392
:101FB0001E821F82188619861A861B861C861D861D
:101FC00003C0803131F080E0DF91CF911F910F91FC
:101FD00008959E012D5E3F4F8B8D9C8D0E94C908F8
:101FE000882389F384E0E1CFAF92BF92CF92DF9252
:101FF000EF92FF920F931F93CF93DF93CDB7DEB78E
:102000002B970FB6F894DEBF0FBECDBF6C01FE015B
:102010003196CE010C967F0120E22193E817F90753
:10202000E1F7DA0120E037E09D91B92E9923A9F17B
:102030009E32B9F43A3091F480E02B960FB6F894C2
:10204000DEBF0FBECDBFDF91CF911F910F91FF90EB
:10205000EF90DF90CF90BF90AF90089528E03AE0E6
:10206000E3CFE7E4F1E08491882321F031969813DF
:10207000FACFE2CF321700F38FED890F8E35E0F6FD
:102080008FE9890F8A3118F440EEB42EB90EF701AA
:10209000E20FF11DB0822F5FC7CF8981803261F2DC
:1020A0008B01FB01838D948DF601948F838FFB014F
:1020B000168217821086118612861386148615865C
:1020C000F80182859385A485B585438954896589FE
:1020D000768984179507A607B70708F0ADCF25E0E6
:1020E000B695A795979587952A95D1F7F82FFF7004
:1020F000AF2EF8018581823008F49ECFC8010E947E
:10210000230C97FD99CFF80182859385A485B58529
:102110004F96A11DB11D82879387A487B587F0E2F2
:10212000AF9EB001112464547E4F6115710509F40E
:1021300083CFFB018081882309F1853E19F4B1101A
:1021400032C01EC04BE050E0C7010E94471B892BE4
:1021500009F0B6CF6A2DC6012B960FB6F894DEBFF4
:102160000FBECDBFDF91CF911F910F91FF90EF90E8
:10217000DF90CF90BF90AF900C94980FB1105CCFD0
:10218000F601A28A8091040190910501A0910601B7
:10219000B091070186879787A08BB18BFB01808167
:1021A000882309F449CFBB24B3948ACF0E94421BF1
:1021B000CF93DF93EC01898D9A8D009741F00E94B7
:1021C0000C0D898D9A8D0E94B91A1A8E198EDF9185
:1021D000CF910895AF92BF92CF92DF92EF92FF928C
:1021E0000F931F93CF93DF93F8942091A60122239E
:1021F00061F07894DF91CF911F910F91FF90EF9054
:10220000DF90CF90BF90AF90089521E02093A6017A
:1022100078946C0123E4C20ED11CF60120812223A4
:1022200011F1EC017C01F8E2EF0EF11CC7010E94F4
:1022300049038823C1F088A10E940D02892B99F0DF
:102240005E0121E4A20EB11C88A10E940D02892B1F
:1022500051F0F50180819181009741F4F6011082DF
:10226000C7010E94D8101092A601C4CF40E250E0EE
:10227000BE010E941C0B8C01892B81F38FA1882346
:1022800021F080E591E00E94470460E08EA10E9469
:102290003602A8015527BE01CE010E94F90361E074
:1022A0008EA10E9436028FA1882371F20E949B03A7
:1022B000CBCF8091B7019091B8010C94EA10EF92C6
:1022C000FF920F931F93CF93DF93EC017B018A0161
:1022D0001B821A8288EE93E0A0E0B0E08C839D839D
:1022E000AE83BF8380E391E0998388838DE190E0A2
:1022F0000E941D1A9A8F898F009779F02DE1F701BE
:10230000DC0101900D922A95E1F74CE050E0B80114
:10231000CE010C960E947B1B188EDF91CF911F91EE
:102320000F91FF90EF9008952F923F924F925F92FE
:102330006F927F928F929F92AF92BF92CF92DF92D5
:10234000EF92FF920F931F93CF93DF93CDB7DEB73A
:10235000C358D1090FB6F894DEBF0FBECDBF1C0124
:102360007B0188EE882E83E0982EA12CB12C9CE571
:10237000C92ED12CCC0EDD1E8CE0C80ED11C2AE05B
:10238000422E512C612C712CD10159960D911C912A
:10239000F8018581823008F48CC082859385A485FC
:1023A000B5858F719927AA27BB27892B8A2B8B2B61
:1023B00009F07FC040E250E0BE016F5F7F4FC8016F
:1023C0000E941C0B803209F074C08981882309F4B3
:1023D00070C0853E79F38E3269F38C8583FDEACF38
:1023E00023961FAE1EAE239784E291E021969FAF05
:1023F0008EAF219725961FAE2597BE016F5F7F4F49
:10240000E0E080E04EE2DB019D91BD019032A1F061
:10241000883049F427E730E02C0F3D1F2E0F311D87
:10242000D9014C93EF5F27E730E02C0F3D1F2E0FB3
:10243000311DD9019C93EF5F8F5F8B3021F787E7C8
:1024400090E08C0F9D1F8E0F911DFC011082D10119
:1024500059966D917C91AE0149585F4FCE01CF9650
:102460000E94F40F882329F1BE01615C7F4FCE01E9
:1024700082960E94F902AE0149585F4FBE016E5D1F
:102480007F4FCE01845A9F4F0E945F11CE01845A24
:102490009F4F0E944903882309F49BC010E01E153A
:1024A0001F04FCF469E08CEB93E00E9477011F5F4E
:1024B000F6CFA0961FAE1EAEA097A4968CAE9DAE92
:1024C000AEAEBFAEA49780E391E06E969FAF8EAFA5
:1024D0006E97E7961FAE1EAEE797A9961FAEA99717
:1024E000D5CFC6010E945D0FE796EEADFFADE79731
:1024F000309709F440C085818230E8F181E491E0B1
:102500000E946A0FA0968EAD9FADA0979C838B838F
:10251000A4968CAD9DADAEADBFADA4978D839E83CB
:10252000AF83B887A8968CAD9DADAEADBFADA89773
:1025300089879A87AB87BC8780E391E09A838983F8
:102540008DE0F601DE011D9601900D928A95E1F76E
:10255000E7968EAD9FADE7979B8F8A8FB7016F5F30
:102560007F4FCE0101960E949411CE01845A9F4F55
:102570000E94D81009CF87E491E00E945D0FE79692
:10258000EEADFFADE79720E030E0A901309721F0F4
:10259000238934894589568919A28E010F5D1F4F01
:1025A000CA01B901A30192010E94DB19605DF80123
:1025B00062938F01211531054105510589F7309747
:1025C00019F0CF010E945D0F8EE391E00E945D0F34
:1025D000CCCFCD57DF4F0FB6F894DEBF0FBECDBFC7
:1025E000DF91CF911F910F91FF90EF90DF90CF90EF
:1025F000BF90AF909F908F907F906F905F904F9023
:102600003F902F9008951F920F920FB60F921124B2
:102610002F933F934F935F936F937F938F939F93EA
:10262000AF93BF93EF93FF938CEB93E00E94550120
:10263000FF91EF91BF91AF919F918F917F916F919A
:102640005F914F913F912F910F900FBE0F901F9070
:1026500018951F920F920FB60F9211242F938F93FC
:102660009F93EF93FF93E091CC03F091CD03808192
:10267000E091D203F091D30382FD1BC09081809141
:10268000D5038F5F8F732091D603821741F0E091BD
:10269000D503F0E0E454FC4F958F8093D503FF9170
:1026A000EF919F918F912F910F900FBE0F901F90E0
:1026B00018958081F4CF1F920F920FB60F921124BC
:1026C0002F933F938F939F93AF93BF938091AD01CF
:1026D0009091AE01A091AF01B091B0013091AC01E9
:1026E00023E0230F2D3758F50196A11DB11D20932E
:1026F000AC018093AD019093AE01A093AF01B09374
:10270000B0018091B1019091B201A091B301B0915B
:10271000B4010196A11DB11D8093B1019093B20146
:10272000A093B301B093B401BF91AF919F918F91EA
:102730003F912F910F900FBE0F901F90189526E894
:10274000230F0296A11DB11DD2CF1F920F920FB67B
:102750000F9211242F933F934F935F936F937F9327
:102760008F939F93AF93BF93EF93FF93E0910201F9
:10277000F09103010995FF91EF91BF91AF919F9166
:102780008F917F916F915F914F913F912F910F901A
:102790000FBE0F901F9018951F920F920FB60F92B9
:1027A00011242F933F934F935F936F937F938F9356
:1027B0009F93AF93BF93EF93FF93E0910001F0914C
:1027C00001010995FF91EF91BF91AF919F918F9179
:1027D0007F916F915F914F913F912F910F900FBE1D
:1027E0000F901F9018951F920F920FB60F92112401
:1027F0002F933F934F935F936F937F938F939F9309
:10280000AF93BF93EF93FF938091B7019091B8017D
:102810000E94EA10FF91EF91BF91AF919F918F912C
:102820007F916F915F914F913F912F910F900FBECC
:102830000F901F901895FC01818D928D009729F0C3
:102840000E94880991E0811101C090E0892F0895CC
:102850002F923F924F925F926F927F928F929F92B0
:10286000AF92BF92CF92DF92EF92FF920F931F939E
:10287000CF93DF93CDB7DEB7C656D1090FB6F89424
:10288000DEBF0FBECDBF6C015B0119A218A284E2AE
:1028900091E09F8F8E8F1BA21C821B829A8389835B
:1028A0001E824E018EE1880E911CC4010E943409E3
:1028B00075018E010F5F1F4F240118016FE270E058
:1028C000C7010E94671B009709F45CC0F7012081D3
:1028D0002F3271F4FFEFEF1AFF0A902F812F820140
:1028E000492E582E942D852D2801092F182FE6CF1B
:1028F0008E198D3008F08CE0682E712CA301B70181
:10290000CE01885A9F4F0E947B1BE8E5F0E0EC0F58
:10291000FD1FE60DF71D1082C8010E940C0DF80185
:102920008581882301F11EAE1DAE84E291E09CAF4B
:102930008BAF21961FAE2197A796EEADFFADA7975F
:10294000AE0EBF1EF5018081811129C0BE01655CFC
:102950007F4FC1010E94F90241E451E0B101C6017B
:102960000E945F113AC0AE01485A5F4FB201C801E0
:102970000E94F40F8823B9F2E60CF71CC2010E94F2
:102980000C0DB0CFC7018A199B09A7969FAF8EAFD8
:10299000A797B201CE01CB960E94F902CDCF19A222
:1029A00018A284E291E09F8F8E8F1BA221968FAD9B
:1029B000219781112DC0F6011382128288EE93E0D7
:1029C000A0E0B0E084839583A683B78380E391E0A1
:1029D00091838083128E118E1486C601CA59DF4FEF
:1029E0000FB6F894DEBF0FBECDBFDF91CF911F9120
:1029F0000F91FF90EF90DF90CF90BF90AF909F909E
:102A00008F907F906F905F904F903F902F900895A0
:102A1000A501BE01655C7F4FC4010E94F40F8823AD
:102A200051F2CE01CB960E940C0DB401C1010E945F
:102A3000F902A50193CF8F929F92AF92BF92CF924E
:102A4000DF92EF92FF920F931F93CF93DF93CDB757
:102A5000DEB76F970FB6F894DEBF0FBECDBF6C0127
:102A600042E058E460E084EA94E00E94EB0E49E220
:102A70005EE167E084EA94E00E94EB0E50E040E003
:102A800066E084EA94E00E94EB0EB601CE01019666
:102A90000E9428148B819C819093CF048093CE0454
:102AA0008D819E81AF81B8858093D0049093D104AD
:102AB000A093D204B093D30489859A85AB85BC8555
:102AC0008093D4049093D504A093D604B093D704F4
:102AD000DE011D96E8EDF4E08D91819384E0E53E02
:102AE000F807D1F7EA8CFB8CF092E604E092E5045B
:102AF0008CEC94E00E944903182F882309F4DBC072
:102B0000F60101900020E9F73197EC19FD09E53055
:102B1000F10508F4A0C034976FE671E0C6018E0F8E
:102B20009F1F0E94541B892B09F095C08091CE04F1
:102B30009091CF049C838B838091D0049091D10499
:102B4000A091D204B091D3048D839E83AF83B887C4
:102B50008091D4049091D504A091D604B091D7046B
:102B600089879A87AB87BC8780E391E09A838983C2
:102B70008DE0E8EDF4E0DE011D9601900D928A955E
:102B8000E1F7FB8EEA8ECE0101960E94490388236D
:102B900009F48CC088248A94982C5401E114F1041F
:102BA00029F0F70182849384A484B58440E050E046
:102BB000BA01CE0101960E941B14882309F472C049
:102BC0008A8D9B8D009709F46DC043E050E0BE01F3
:102BD000645E7F4F0E941C0B892B09F463C01F8E1B
:102BE00063E471E0CE014C960E94721B892B09F0C0
:102BF00059C046E050E060E070E0CE0101960E94CE
:102C00001B14882309F44EC004E0C12CD12C76019A
:102C100087E0CC0CDD1CEE1CFF1C8A95D1F7CE01A1
:102C200001960E943A0C8F779927092E000CAA0B67
:102C3000BB0BC82AD92AEA2AFB2A015049F7B50159
:102C4000A401CE0101960E941B14B701A6018CECD1
:102C500094E00E941B14F89450E040E064E084EAA1
:102C600094E00E94EB0E50E040E064E084EA94E0DF
:102C70000E94EB0E81E08093E7048091C4040E94DF
:102C80000D02892BD1F38091E704882399F080917C
:102C9000C4040E940D02892B69F084EA94E00E942A
:102CA000EA10F1CFC12CD12C7601C9CFC12CD12C87
:102CB0007601CBCF7894812F6F960FB6F894DEBF54
:102CC0000FBECDBFDF91CF911F910F91FF90EF907D
:102CD000DF90CF90BF90AF909F908F900895ECEBD6
:102CE000F3E01382128288EE93E0A0E0B0E08483E8
:102CF0009583A683B78322E131E03183208325ECDD
:102D000030E03587248724EC30E03787268720ECB5
:102D100030E0318B208B21EC30E0338B228B22ECA6
:102D200030E0358B248B26EC30E0378B268B118EF0
:102D3000128E138E148EE9E5F4E020E520831182D3
:102D4000EBE5F4E0158216821186138642E050E02E
:102D500060E070E0448755876687778713A215A6E1
:102D600014A624E231E033A722A717A6E4EAF4E090
:102D700011A212A213A221E027A329E024A32AE092
:102D800025A328E026A323E020A313A612A684A748
:102D900095A7A6A7B7A780E391E091A780A7109277
:102DA000E6041092E50414AA1092E70484E08093EC
:102DB000E8040895CF93DF93CDB7DEB76B970FB6D6
:102DC000F894DEBF0FBECDBF789484B5826084BD19
:102DD00084B5816084BD85B5826085BD85B581601F
:102DE00085BD80916E00816080936E00109281009D
:102DF0008091810082608093810080918100816058
:102E00008093810080918000816080938000809118
:102E1000B10084608093B1008091B00081608093A4
:102E2000B00080917A00846080937A0080917A006B
:102E3000826080937A0080917A00816080937A002A
:102E400080917A00806880937A001092C100E091AE
:102E5000CC03F091CD0382E08083E091C803F09130
:102E6000C9031082E091CA03F091CB038FEC8083F9
:102E70001092D403E091D003F091D10386E08083D7
:102E8000E091CE03F091CF03808180618083E09157
:102E9000CE03F091CF03808188608083E091CE03E0
:102EA000F091CF03808180688083E091CE03F09120
:102EB000CF0380818F7D80838AE491E00E946A0F36
:102EC00061E08091E8040E94640261E08091E8047E
:102ED0000E9436028091C80487FD08C061E00E940C
:102EE000640260E08091C8040E94360261E0809133
:102EF000C9040E94640261E08091C9040E94360204
:102F000061E08091CA040E94640261E08091CA0479
:102F10000E94360260E08091C4040E9464028091A5
:102F2000CB0481118FC061E08091C5040E946402CE
:102F300061E08091C7040E94640260E08091C60451
:102F40000E9464028091C80487FD0EC060E00E9468
:102F5000360264E670E080E090E00E94BA0261E030
:102F60008091C8040E94360261E08091C9040E94E9
:102F7000360261E08091CA040E94360264E670E085
:102F800080E090E00E94BA0244E058E060E084EA09
:102F900094E00E94EB0E64E670E080E090E00E9416
:102FA000BA0264E670E080E090E00E94BA0240E07D
:102FB00050E663E084EA94E00E94EB0EF89448E265
:102FC00058E26BE084EA94E00E94EB0E78948091E2
:102FD000CB04882321F082E590E00E94470460E062
:102FE0008091C9040E94360263E084EA94E00E9462
:102FF0002B0461E084EA94E00E942B0483E290E0D9
:103000000197F1F70E94C103082F10E0102F00274D
:103010000E94C103082B61E08091C9040E9436021E
:103020008091CB0481110E949B0334E01695079593
:103030003A95E1F70F70043041F08DE091E00E9485
:10304000780FFFCF0E94230F7DCF80E091E00E9498
:10305000780F80918A04882321F085E894E00E940B
:103060000C0D109266041092640410926104109288
:10307000600484E080935F040E94EC027B0161E0C5
:1030800080915F040E94640261E080915F040E946D
:1030900036020E94230F82E58093590410925A044D
:1030A0008091590490915A040E9447041AE08FEFCE
:1030B0000E94BA031150D9F70E949B038BE594E05C
:1030C0000E94610420E030E0A90160E08BE594E01B
:1030D0000E947704182F80936504813099F00E9434
:1030E000EC026E197F09613D774060F381E08093C7
:1030F00060048BE594E00E94AC0386EE90E00E94B1
:10310000780FFFCF2AEA31E040E050E068E08BE53D
:1031100094E00E94770482FF2AC010936604809195
:103120006604812C912C5401823029F4812C912C3D
:10313000A12C20E4B22E20E030E0A90167E38BE56A
:1031400094E00E947704A501940169E28BE594E084
:103150000E947704809365048823B9F00E94EC02F2
:103160006E197F09613D774030F388E0C0CF0E943F
:10317000DB03809365040150D1F78A3A11F082E0B5
:10318000B6CF82E080936604CACF80916604823015
:10319000D1F420E030E0A9016AE38BE594E00E94DD
:1031A0007704882311F086E0A2CF0E94DB03807CA5
:1031B000803C19F483E0809366040E94DB030E9444
:1031C000DB030E94DB038BE594E00E94AC0380E507
:1031D0008093590410925A0481E00E947D0688234E
:1031E00009F468C085E894E00E943409882309F452
:1031F00084CF61E471E0CE0101960E94281470E052
:1032000060E0CE0101960E949411F89444E154E1EB
:103210006BE084EA94E00E94EB0E789484EA94E0F8
:103220009093B8018093B7018091C404823009F073
:1032300048C080E02FB7F894813009F412E09091F3
:10324000B501192B1093B5019091B601911103C0EE
:1032500091E09093B6012FBFE82F082E000CFF0BD2
:10326000EE0FFF1FE050FF4F29E531E1318320834E
:10327000813059F1809169008C7F81608093690071
:10328000E89A84ED90E00E94780F86E691E00E9433
:103290001B15882311F18091E7048823F1F084EA5B
:1032A00094E00E94EA1065E070E080E090E00E9407
:1032B000BA02F1CF80E00E947D06882309F41DCF79
:1032C00091CF8330F1F681E0B5CF80916900837FA3
:1032D000846080936900E99AD4CF82EC90E00E94E8
:1032E000780F84E791E00E941B1500E010E08091C8
:1032F000E704811111C08CEC94E00E944903811114
:103300000BC082E891E00E946A0F6AE070E080E002
:1033100090E00E94BA02F9CF8CEB93E00E94350155
:10332000892B99F08CEB93E00E9413018337E9F429
:1033300048E058E460E084EA94E00E94EB0E1092CA
:10334000E7048CEC94E00E94D81064E670E080E022
:1033500090E00E94BA020115110549F20E94410154
:10336000882329F20E940000C2CF803771F7809134
:10337000E704811119C08CEC94E00E944903882372
:1033800099F085E991E00E946A0F8CEC94E00E942C
:1033900049038093E7048091E7048823B1F284EA2B
:1033A00094E00E94EA10D1CF8DE991E00E946A0F6B
:1033B0001092E704F0CFA1E21A2EAA1BBB1BFD015D
:1033C0000DC0AA1FBB1FEE1FFF1FA217B307E40704
:1033D000F50720F0A21BB30BE40BF50B661F771F5C
:1033E000881F991F1A9469F760957095809590953C
:1033F0009B01AC01BD01CF0108950E940E1AA59F4B
:10340000900DB49F900DA49F800D911D11240895DF
:10341000EE0FFF1F0590F491E02D0994A29FB001DB
:10342000B39FC001A39F700D811D1124911DB29FF8
:10343000700D811D1124911D08950F931F93CF933B
:10344000DF938230910510F482E090E0E091EB048C
:10345000F091EC0430E020E0B0E0A0E0309799F487
:103460002115310509F44AC0281B390B24303105D8
:10347000D8F58A819B816115710589F1FB019383E0
:103480008283FE0111C0408151810281138148175E
:103490005907E0F04817590799F4109761F0129610
:1034A0000C93129713961C933296CF01DF91CF9114
:1034B0001F910F9108950093EB041093EC04F4CF47
:1034C0002115310551F04217530738F0A901DB01EE
:1034D0009A01BD01DF01F801C1CFEF01F9CF90934F
:1034E000EC048093EB04CDCFFE01E20FF31F819338
:1034F00091932250310939832883D7CF2091E90451
:103500003091EA04232B41F420910A0130910B0100
:103510003093EA042093E9042091080130910901D5
:103520002115310541F42DB73EB740910C01509162
:103530000D01241B350BE091E904F091EA04E21738
:10354000F307A0F42E1B3F0B2817390778F0AC01C6
:103550004E5F5F4F2417350748F04E0F5F1F5093A3
:10356000EA044093E904819391939FCFF0E0E0E077
:103570009CCFCF93DF930097E9F0FC013297138241
:103580001282A091EB04B091EC04ED0130E020E058
:103590001097A1F420813181820F931F2091E904BB
:1035A0003091EA042817390709F061C0F093EA0462
:1035B000E093E904DF91CF910895EA01CE17DF0788
:1035C000E8F54A815B819E0141155105B1F7E9019A
:1035D000FB83EA8349915991C40FD51FEC17FD076E
:1035E00061F4808191810296840F951FE90199838E
:1035F0008883828193819B838A83F0E0E0E0129646
:103600008D919C9113970097B9F52D913C9111974D
:10361000CD010296820F931F2091E9043091EA04B4
:103620002817390739F6309751F51092EC041092AB
:10363000EB04B093EA04A093E904BCCFD383C28324
:1036400040815181840F951FC817D90761F44E5FDF
:103650005F4F88819981480F591F518340838A8128
:103660009B81938382832115310509F0B0CFF093BC
:10367000EC04E093EB049ECFFD01DC01C0CF13828C
:103680001282D7CF81E090E0F8940C948A1BFB0162
:10369000DC0104C08D910190801921F4415050400B
:1036A000C8F7881B990B0895FB01DC018D918134CB
:1036B0001CF08B350CF4805E619161341CF06B352D
:1036C0000CF4605E861B611189F3990B0895FC016F
:1036D0008191861721F08823D9F79927089531978A
:1036E000CF010895FB01DC018D910190801901103B
:1036F000D9F3990B0895FB01DC014150504048F08B
:1037000001900D920020C9F701C01D924150504018
:10371000E0F70895F894FFCFF802F802FFFFFFFFEB
:103720000000ED048000000000007701D7000401D4
:10373000C40135011301270100000000BD0ED700B0
:10374000AE0C590F000000008503CE0E7503190D55
:1037500055033A0C440C0D0A002F0049443300096C
:1037600009004164616672756974205653313035C1
:10377000332053696D706C652054657374002F7429
:103780007261636B3030312E6D7033002F74726153
:10379000636B3030322E6D703300446F6E65207075
:1037A0006C6179696E67206D75736963005265732A
:0C37B000756D6564005061757365640000
:107E0000112484B714BE81FFF0D085E080938100F7
:107E100082E08093C00088E18093C10086E0809377
:107E2000C20080E18093C4008EE0C9D0259A86E02C
:107E300020E33CEF91E0309385002093840096BBD3
:107E4000B09BFECF1D9AA8958150A9F7CC24DD24C4
:107E500088248394B5E0AB2EA1E19A2EF3E0BF2EE7
:107E6000A2D0813461F49FD0082FAFD0023811F036
:107E7000013811F484E001C083E08DD089C08234E0
:107E800011F484E103C0853419F485E0A6D080C0E4
:107E9000853579F488D0E82EFF2485D0082F10E0AE
:107EA000102F00270E291F29000F111F8ED06801E7
:107EB0006FC0863521F484E090D080E0DECF843638
:107EC00009F040C070D06FD0082F6DD080E0C81688
:107ED00080E7D80618F4F601B7BEE895C0E0D1E017
:107EE00062D089930C17E1F7F0E0CF16F0E7DF06D8
:107EF00018F0F601B7BEE89568D007B600FCFDCFD4
:107F0000A601A0E0B1E02C9130E011968C91119780
:107F100090E0982F8827822B932B1296FA010C0160
:107F200087BEE89511244E5F5F4FF1E0A038BF0790
:107F300051F7F601A7BEE89507B600FCFDCF97BE46
:107F4000E89526C08437B1F42ED02DD0F82E2BD052
:107F50003CD0F601EF2C8F010F5F1F4F84911BD097
:107F6000EA94F801C1F70894C11CD11CFA94CF0C13
:107F7000D11C0EC0853739F428D08EE10CD085E9AC
:107F80000AD08FE07ACF813511F488E018D01DD067
:107F900080E101D065CF982F8091C00085FFFCCF94
:107FA0009093C60008958091C00087FFFCCF809118
:107FB000C00084FD01C0A8958091C6000895E0E648
:107FC000F0E098E1908380830895EDDF803219F02E
:107FD00088E0F5DFFFCF84E1DECF1F93182FE3DFCA
:107FE0001150E9F7F2DF1F91089580E0E8DFEE27F6
:047FF000FF270994CA
:027FFE00040479
:00000001FF
